:020000040000fa
:080000000002040000000000f2
:020000040000fa
:0400080014230000bd
:020000040000fa
:04000c0004230000c9
:020000040000fa
:0400100008230000c1
:020000040000fa
:040014000c230000b9
:020000040000fa
:0400180010230000b1
:020000040000fa
:04001c0014230000a9
:020000040000fa
:0400200014230000a5
:020000040000fa
:0400240014230000a1
:020000040000fa
:040028001823000099
:020000040000fa
:04002c001423000099
:020000040000fa
:040030001423000095
:020000040000fa
:040034001423000091
:020000040000fa
:04003800142300008d
:020000040000fa
:04003c001423000089
:020000040000fa
:040040001423000085
:020000040000fa
:040044001423000081
:020000040000fa
:04004800142300007d
:020000040000fa
:04004c001423000079
:020000040000fa
:040050001423000075
:020000040000fa
:0400540094230000f1
:020000040000fa
:04005800142300006d
:020000040000fa
:04005c001423000069
:020000040000fa
:040060001423000065
:020000040000fa
:040064001423000061
:020000040000fa
:04006800142300005d
:020000040000fa
:04006c001423000059
:020000040000fa
:040070001423000055
:020000040000fa
:040074001423000051
:020000040000fa
:04007800142300004d
:020000040000fa
:04007c001423000049
:020000040000fa
:040080001423000045
:020000040000fa
:040084001423000041
:020000040000fa
:04008800142300003d
:020000040000fa
:04008c001423000039
:020000040000fa
:040090001423000035
:020000040000fa
:040094001423000031
:020000040000fa
:04009800142300002d
:020000040000fa
:04009c001423000029
:020000040000fa
:0400a0001423000025
:020000040000fa
:0400a4001423000021
:020000040000fa
:0400a800142300001d
:020000040000fa
:0400ac001423000019
:020000040000fa
:0400b0001423000015
:020000040000fa
:0400b4001423000011
:020000040000fa
:0400b800142300000d
:020000040000fa
:0400bc001423000009
:020000040000fa
:0400c0001423000005
:020000040000fa
:0400c4001423000001
:020000040000fa
:0400c80014230000fd
:020000040000fa
:0400cc0014230000f9
:020000040000fa
:0400d00014230000f5
:020000040000fa
:0400d40014230000f1
:020000040000fa
:0400d80014230000ed
:020000040000fa
:0400dc0014230000e9
:020000040000fa
:0400e00014230000e5
:020000040000fa
:0400e40014230000e1
:020000040000fa
:0400e80014230000dd
:020000040000fa
:0400ec0014230000d9
:020000040000fa
:0400f00014230000d5
:020000040000fa
:0400f40014230000d1
:020000040000fa
:0400f80014230000cd
:020000040000fa
:0400fc0014230000c9
:020000040000fa
:0401000014230000c4
:020000040000fa
:0401040014230000c0
:020000040000fa
:0401080014230000bc
:020000040000fa
:04010c0014230000b8
:020000040000fa
:0401100014230000b4
:020000040000fa
:0401140014230000b0
:020000040000fa
:0401180014230000ac
:020000040000fa
:04011c0014230000a8
:020000040000fa
:0401200014230000a4
:020000040000fa
:0401240014230000a0
:020000040000fa
:04012800142300009c
:020000040000fa
:04012c001423000098
:020000040000fa
:040130001423000094
:020000040000fa
:040134001423000090
:020000040000fa
:04013800142300008c
:020000040000fa
:04013c001423000088
:020000040000fa
:040140001423000084
:020000040000fa
:040144001423000080
:020000040000fa
:04014800142300007c
:020000040000fa
:04014c001423000078
:020000040000fa
:040150001423000074
:020000040000fa
:040154001423000070
:020000040000fa
:04015800142300006c
:020000040000fa
:04015c001423000068
:020000040000fa
:040160001423000064
:020000040000fa
:040164001423000060
:020000040000fa
:04016800142300005c
:020000040000fa
:04016c001423000058
:020000040000fa
:040170001423000054
:020000040000fa
:040174001423000050
:020000040000fa
:04017800142300004c
:020000040000fa
:04017c001423000048
:020000040000fa
:040180001423000044
:020000040000fa
:040184001423000040
:020000040000fa
:04018800142300003c
:020000040000fa
:04018c001423000038
:020000040000fa
:040190001423000034
:020000040000fa
:040194001423000030
:020000040000fa
:04019800142300002c
:020000040000fa
:04019c001423000028
:020000040000fa
:0401a0001423000024
:020000040000fa
:0401a4001423000020
:020000040000fa
:0401a800142300001c
:020000040000fa
:0401ac001423000018
:020000040000fa
:0401b0001423000014
:020000040000fa
:0401b4001423000010
:020000040000fa
:0401b800142300000c
:020000040000fa
:0401bc001423000008
:020000040000fa
:0401c0001423000004
:020000040000fa
:0401c4001423000000
:020000040000fa
:0401c80014230000fc
:020000040000fa
:0401cc0014230000f8
:020000040000fa
:0401d00014230000f4
:020000040000fa
:0401d40014230000f0
:020000040000fa
:0401d80014230000ec
:020000040000fa
:0401dc0014230000e8
:020000040000fa
:0401e00014230000e4
:020000040000fa
:0401e40014230000e0
:020000040000fa
:0401e80014230000dc
:020000040000fa
:0401ec0014230000d8
:020000040000fa
:0401f00014230000d4
:020000040000fa
:0401f40014230000d0
:020000040000fa
:0401f80014230000cc
:020000040000fa
:0401fc0014230000c8
:020000040000fa
:0402080014230000bb
:020000040000fa
:04020c0014230000b7
:020000040000fa
:0402100014230000b3
:020000040000fa
:0402140014230000af
:020000040000fa
:0402180014230000ab
:020000040000fa
:04021c0014230000a7
:020000040000fa
:0402200014230000a3
:020000040000fa
:04022400142300009f
:020000040000fa
:04022800142300009b
:020000040000fa
:04022c001423000097
:020000040000fa
:040230001423000093
:020000040000fa
:04023400142300008f
:020000040000fa
:04023800142300008b
:020000040000fa
:04023c001423000087
:020000040000fa
:040240001423000083
:020000040000fa
:04024400142300007f
:020000040000fa
:04024800142300007b
:020000040000fa
:04024c001423000077
:020000040000fa
:040250001423000073
:020000040000fa
:04025400142300006f
:020000040000fa
:04025800142300006b
:020000040000fa
:04025c001423000067
:020000040000fa
:040260001423000063
:020000040000fa
:04026400142300005f
:020000040000fa
:04026800142300005b
:020000040000fa
:04026c001423000057
:020000040000fa
:040270001423000053
:020000040000fa
:04027400142300004f
:020000040000fa
:04027800142300004b
:020000040000fa
:04027c001423000047
:020000040000fa
:040280001423000043
:020000040000fa
:04028400142300003f
:020000040000fa
:04028800142300003b
:020000040000fa
:04028c001423000037
:020000040000fa
:040290001423000033
:020000040000fa
:04029400142300002f
:020000040000fa
:04029800142300002b
:020000040000fa
:04029c001423000027
:020000040000fa
:0402a0001423000023
:020000040000fa
:0402a400142300001f
:020000040000fa
:0402a800142300001b
:020000040000fa
:0402ac001423000017
:020000040000fa
:0402b0001423000013
:020000040000fa
:0402b400142300000f
:020000040000fa
:0402b800142300000b
:020000040000fa
:0402bc001423000007
:020000040000fa
:0402c0001423000003
:020000040000fa
:0402c40014230000ff
:020000040000fa
:0402c80014230000fb
:020000040000fa
:0402cc0014230000f7
:020000040000fa
:0402d00014230000f3
:020000040000fa
:0402d40014230000ef
:020000040000fa
:0402d80014230000eb
:020000040000fa
:0402dc0014230000e7
:020000040000fa
:0402e00014230000e3
:020000040000fa
:0402e40014230000df
:020000040000fa
:0402e80014230000db
:020000040000fa
:0402ec0014230000d7
:020000040000fa
:0402f00014230000d3
:020000040000fa
:0402f40014230000cf
:020000040000fa
:0402f80014230000cb
:020000040000fa
:0402fc0014230000c7
:020000040000fa
:0403000014230000c2
:020000040000fa
:0403040014230000be
:020000040000fa
:0403080014230000ba
:020000040000fa
:04030c0014230000b6
:020000040000fa
:0403100014230000b2
:020000040000fa
:0403140014230000ae
:020000040000fa
:0403180014230000aa
:020000040000fa
:04031c0014230000a6
:020000040000fa
:0403200014230000a2
:020000040000fa
:04032400142300009e
:020000040000fa
:04032800142300009a
:020000040000fa
:04032c001423000096
:020000040000fa
:040330001423000092
:020000040000fa
:04033400142300008e
:020000040000fa
:04033800142300008a
:020000040000fa
:04033c001423000086
:020000040000fa
:040340001423000082
:020000040000fa
:04034400142300007e
:020000040000fa
:04034800142300007a
:020000040000fa
:04034c001423000076
:020000040000fa
:040350001423000072
:020000040000fa
:04035400142300006e
:020000040000fa
:04035800142300006a
:020000040000fa
:04035c001423000066
:020000040000fa
:040360001423000062
:020000040000fa
:04036400142300005e
:020000040000fa
:04036800142300005a
:020000040000fa
:04036c001423000056
:020000040000fa
:040370001423000052
:020000040000fa
:04037400142300004e
:020000040000fa
:04037800142300004a
:020000040000fa
:04037c001423000046
:020000040000fa
:040380001423000042
:020000040000fa
:04038400142300003e
:020000040000fa
:04038800142300003a
:020000040000fa
:04038c001423000036
:020000040000fa
:040390001423000032
:020000040000fa
:04039400142300002e
:020000040000fa
:04039800142300002a
:020000040000fa
:04039c001423000026
:020000040000fa
:0403a0001423000022
:020000040000fa
:0403a400142300001e
:020000040000fa
:0403a800142300001a
:020000040000fa
:0403ac001423000016
:020000040000fa
:0403b0001423000012
:020000040000fa
:0403b400142300000e
:020000040000fa
:0403b800142300000a
:020000040000fa
:0403bc001423000006
:020000040000fa
:0403c0001423000002
:020000040000fa
:0403c40014230000fe
:020000040000fa
:0403c80014230000fa
:020000040000fa
:0403cc0014230000f6
:020000040000fa
:0403d00014230000f2
:020000040000fa
:0403d40014230000ee
:020000040000fa
:0403d80014230000ea
:020000040000fa
:0403dc0014230000e6
:020000040000fa
:0403e00014230000e2
:020000040000fa
:0403e40014230000de
:020000040000fa
:0403e80014230000da
:020000040000fa
:0403ec0014230000d6
:020000040000fa
:0403f00014230000d2
:020000040000fa
:0403f40014230000ce
:020000040000fa
:0403f80014230000ca
:020000040000fa
:0403fc0014230000c6
:020000040000fa
:10040000ef9c20000e7f22000e01880000000000fb
:10041000000020000000e000020032000001200087
:10042000200288000c000700c040220001002000cc
:100430000f000700000020000000e0000200320072
:1004400000000200000000003c2302000000000049
:100450000040da000000fe00a00020000000e000e4
:1004600002003200002020009001880000000600f9
:10047000a1028800800078000000eb001a0037001d
:10048000e280400054a0b4009101ba00e280400034
:1004900054a0b4009102ba00e280400054a0b4001d
:1004a0000002eb00472bde00f507b200a601880032
:1004b000602ce10008003a000049eb000201e8006e
:1004c000020039003420ec0002f0a0008301e900b2
:1004d000f9ff3e00040037006128e100010032000e
:1004e0000082eb000b00070011c3ba001101ba0033
:1004f0000604e00003003a000200e000e0ff3a00da
:1005000000000600f607b200a6028800820078000c
:10051000f5ff370004d0a300e20f49001c003900aa
:10052000810278003549ba000201e8000200390072
:100530003420ec0002f0a0008301e9000f0032003b
:100540002549ba000201e800020039003420ec001d
:1005500002f0a0008301e900080032000400e0007e
:100560000600320015c9ba000201e8000200390095
:100570003420ec0002f0a0008301e9008180e80053
:1005800054a0b4000300e000e2ff3a0000000600bf
:100590009102ba00055978008301e900f7ff3200a3
:1005a000c82ade00055978008301e900f3ff320014
:1005b0000400e000f1ff320011d9ba00eeff37006d
:1005c0008a0804000000000003f0a200889fbe001b
:1005d0008a9fbe008c1f7800350107003c01330064
:1005e0006450e1004f0032006420e100520032000c
:1005f00003826c0007003b000905d0000306d00011
:10060000820f54000c065d00020039000200320027
:1006100089017800030678008582550004003d00ba
:100620000003fd008103fd008502ea008b85420086
:10063000840f720002003b0060001000e080180090
:100640006011b8000005eb007a28e1000a003900cb
:1006500006007800c75ddd00f707b20087807500ef
:100660002d003700828171000a0178006105600069
:100670008180d1000080d3008502e900f9ff3b00b2
:10068000060440008784480002003b006004140018
:10069000e0841c000988a300070032008a817100f1
:1006a00082817100610164008904d1000884d30053
:1006b0008b05e800170037000978a30013003a0003
:1006c0000b00e000130034008b05e900080444002f
:1006d00089844c000a4474000978a3000d003a0094
:1006e0000b00e000070034008b05e900080444001b
:1006f00089844c0001003a000b0020000978a30017
:10070000f7ff32000001eb00020037008281710028
:100710000a017800ab0007000cf0a70001f0a00070
:10072000f40037006420e10002003a00838f6c007f
:10073000f40033000801be000200be00ed003700e7
:10074000889fbe008a9fbe008c1f7800d8000700db
:10075000df00330003866c006450e1002e0032009d
:100760006420e100330032006150e1002f003200cc
:100770006120e1003100320085855500eb07b000b3
:100780000900200008042000050037000804440088
:1007900089844c000a0031000603430087834b0024
:1007a0000001530081815b00f8ff33000203be00ab
:1007b0000800a0000804440089844c00f6ff3900ba
:1007c000c639dd00830173000100320013002000f0
:1007d0008904d1000884d3000998a30005003200e1
:1007e0000800a7000300a0008904d1000884d300fa
:1007f0008b05e8008904d1000884d3000001eb00d8
:100800000281d2006f00070001f0a1000cf0a700e8
:1008100001f0a000b70037006420e100b900320009
:100820000801be000200be00f7ff37006120e100b2
:10083000b40032006000b800f3ff37000000200071
:1008400001f82700f0ff37000001be008300070019
:100850000470a70003f0a10003f8a30013003a00fe
:100860006509b10010003200090035006928e10077
:1008700002003500010028000000050000004000d3
:10088000818048008502e900fcff3a000000060074
:10089000f88f4200050035008100d1000080d300b0
:1008a0008502e800fcff3a00000006008000eb0033
:1008b00000000500881f7800030478000300e000b2
:1008c00007003d0060001000e08018006001190082
:1008d000e081190002003b0001f02d000300370009
:1008e0000700070008f0a70001f0a0004f047800ff
:1008f000000006004f89de0082017800edff37001e
:10090000889fbe008a9fbe000082700004027100b2
:1009100004827100260032000004be000200be0006
:100920006011b8006b092000950220000182cf0001
:100930000a0039000541b1000082cf0007003900ec
:100940000541b1000982cf00040039000541b10022
:100950000882cf00010039000541b1000542520074
:10096000120032000a003b008281710061016400c4
:100970008100d1000080d3008984d3000884d30093
:100980008b05e8000442e800f7ff3a000700370053
:100990000804440089844c0000004800818048001d
:1009a0008b05e9000442e900f9ff3a000500070061
:1009b0004f05be004f04be00000006006011b800e5
:1009c000cfff370081002000618055000b003d0003
:1009d0000b00200061fe2f000100e1001d0034002b
:1009e00082817100610164008904d1000884d30010
:1009f0000000e800faff3a00710020006100640086
:100a0000030070000200600009003200610444002d
:100a1000e0844c000988a500050032008b05e80041
:100a20006808e10002003a008904d1000884d3007c
:100a3000f20f20000258e10005003d00c75ddd0017
:100a4000f907b200898075000800780000000600f0
:100a50000bf827008b00780000000500c70ade00b5
:100a6000f107b200f50fb20008003200e1cf4200fa
:100a7000020032000170a00024000500810f700008
:100a8000010032000408050044000500810f7000d9
:100a900002003a00140005008502e9000000400051
:100aa00081c04800fcff3b000170a000240005004d
:100ab0000004be00e9ff07000003be000405be00fd
:100ac0000200be00e5ff0700844f7500000006002d
:100ad0000200be006450e100050036006420e10021
:100ae000020036000968a30001003a000800be00b9
:100af0000160a0004f0678004f05be004f04be0005
:100b000000000600f0ff2f00f1ff2700f9ff37007b
:100b1000889fbe008a9fbe008c1f7800e4ff0700fc
:100b2000ebff330003866c006450e10024003200c8
:100b30006420e100270032006150e1002200320011
:100b40006120e100210032008b854200eb07b100fb
:100b50000134b800003ab8000804420089844a0011
:100b6000013ab8000030b8008880400009014a000e
:100b70000400330000004000818048000201490069
:100b80008b05e900c909dd00830170000100320016
:100b900013002000c814de004814dd004709de0001
:100ba0001200b200c808de000884700085ff07004c
:100bb00001f0a1000cf0a70001f0a000cdff37006c
:100bc0006120e100cfff32000801be000200be003c
:100bd000f7ff37006150e100fcff3a00c9ff370022
:100be000889fbe008a9fbe0030044200b0844a0045
:100bf00030054b0090854b006000b1000898be00a6
:100c00000a90be000440e10005c8e10006d0e10002
:100c100007d8e10002003100680040001008e80039
:100c20004f05be004f04be0000000600889fbe00b6
:100c30008a9fbe003004be002005be000418540088
:100c400005985c0006185d0007985d001100200003
:100c50000440e10005c8e10006d0e10007d8e1004a
:100c6000010039008000eb00108810004f05be0025
:100c70004f04be00000006001200fa00889fbe006c
:100c80008a9fbe008c9fbe00e0b79f00f1b79f0017
:100c900082bf9f0093bf9f000605be000404be00f4
:100ca0000000eb00d0b79f00c0b79f00b0b79f0017
:100cb000a0b79f0090b79f000006eb005fb19700c0
:100cc000cfb09700820141003fb097000200e000e2
:100cd00004003d00370007007e805700c0ff07007a
:100ce00003003700330007007e805700cfff070066
:100cf000dfb697000d00e0000c0035006fb29700e2
:100d0000ffb297000fbb97009fbb97001000200019
:100d1000010020006011b8000002720081827200a0
:100d200002037300838373001b0007000c06e800b6
:100d300001042000810f5600e0ff3a000d00e000a2
:100d400004003d000802be000a03be007e8057007a
:100d5000a3ff07005fa897000000e00005003a002d
:100d60001fb29700afb297003fb39700cfb3970081
:100d7000090007006fb09700ffb097000fb9970008
:100d80009fb997004f06be004f05be004f04be003e
:100d90000080fa00000006000100070000000600c5
:100da000a4b79f00b5b79f00c6b79f00d7b79f00f5
:100db000000006004f09de0082817100b3b79f007a
:100dc0004f01de008180400082807000a1b79f004b
:100dd0008fb097004f09de00000040000200700055
:100de00090b79f007fa897004f01de0081804000f0
:100df0008280700081b79f000d0007004f3ade002f
:100e00000000400004007000f0af9f0008000700e1
:100e10000402420085824a0006034b0087834b0090
:100e2000dfff07000802be000a03be000000060044
:100e30002fb29700bfb297004fb39700dfb3970070
:100e400000000600881f780018002000881f780026
:100e500089ff07008f87e9004f0478000000060033
:100e6000801feb0084ff07008f87e9000000060069
:100e7000889fbe008a9fbe00e00f5000e08f5800a0
:100e8000e00f5900e08f59000c003d006044b800ad
:100e90006055b8000000540081805c0002015d00d4
:100ea00083815d00180020001500070008003d0048
:100eb000180007000004eb00050037000004eb00f9
:100ec0000f00070002003d0012000700180020007c
:100ed000dcff07000800e000060032006022b800d6
:100ee0006033b8000000520081805a0002015b00ac
:100ef00083815b004f05be004f04be00000006006a
:100f0000e00f5200e08f5a00e00f5b00e08f5b00c3
:100f1000000006006044b8006055b80004025400a8
:100f200085825c0006035d0087835d00000006008b
:100f3000889fbe008a9fbe008c1f7800e00f500083
:100f4000e08f5800e00f5900e08f59000d003d0080
:100f50006044b8006055b8000000540081805c0017
:100f600002015d0083815d001c0020000820e1007b
:100f700009a8e1000ab0e1000bb8e1000d003d0056
:100f8000080037000006eb00e00f5200e08f5a0027
:100f9000e00f5b00e08f5b0006003d006044b8009e
:100fa0006055b8000402540085825c0006035d00b1
:100fb00087835d00aaff07000c00e00006003200f6
:100fc0006022b8006033b8000000520081805a00ef
:100fd00002015b0083815b004f0678004f05be0075
:100fe0004f04be0000000600889fbe008a9fbe001e
:100ff0008c1f78000006eb00e00f5000e08f5800d7
:10100000e00f5900e08f590007003d006044b80030
:101010006055b8000000540081805c0002015d0052
:1010200083815d001c002000e00f5200e08f5a0019
:10103000e00f5b00e08f5b0007003d006044b800fc
:101040006055b8000402540085825c0006035d0010
:1010500087835d000c00a2000c0007000c00e0007c
:10106000060032006022b8006033b8000000520071
:1010700081805a0002015b0083815b004f0678008b
:101080004f05be004f04be0000000600889fbe0052
:101090008a9fbe008c9fbe000404b8000506b800fd
:1010a0008904460060854e000606b8000a05460021
:1010b000e0854e000706b8008b054600040eb80018
:1010c000890446000a854e00e0854d00050eb800f3
:1010d0000a0546008b854e00060eb8008b054600bb
:1010e0000416b8000a0546008b854e000516b800a8
:1010f0008b054600041eb8008b0546000800be00a4
:101100000a01be004f06be004f05be004f04be00e0
:1011100000000600881f78000204780008017800ab
:10112000cc010700080040004f04780000000600d2
:101130000000fa00881f780000047800ea81570058
:101140003fb9970088007800a088200007000700ba
:101150000000e000020035008040eb0001747800e0
:101160004f0478000080fa00000006006200fa00d8
:10117000889fbe008a1f78000005780081047800ef
:10118000020478008300780080f92f000f004000ef
:10119000ae0307009a979f00a9979f000000eb00fd
:1011a000b09f9f001885fb008a04fb000a05ea0037
:1011b0004f55de0050022000808f54000d00320099
:1011c000e10f55000b003a000a0178008800780012
:1011d0002f9097009f91970003000100a0979f0018
:1011e0000000e0008e0032003f9897000000e80009
:1011f000b09f9f000a04440050022000808f5400da
:10120000040032000900e000e6ff3a003f98970032
:10121000840037000000eb00909f9f00809f9f009c
:10122000f0979f00e0979f00d0979f00c0979f0086
:1012300007003700819c20000100500000004000a2
:10124000c19b200061007800df98970001007000ca
:10125000d09f9f0088047800090478003845780002
:101260008a00fb00809c2000810107000000e00054
:10127000f0ff3a00a1c2b300814f55000e003a00c2
:10128000cf8897000180e900c08f9f001000780090
:10129000c09f9f000000e00005003d000000ea0044
:1012a000c09f9f005f9897000020a000d09f9f00e4
:1012b0000904e8000f003700c09f9f000000eb000a
:1012c00005003700f2ff2700820f500002003200b5
:1012d0006a01b9000280400009047800880478009f
:1012e000b900fb000103b100e98f5000f5ff3600a3
:1012f000c09f9f00e0c2b300984f10000200320070
:101300000080eb0019003700a0c2b300d84f1000d6
:1013100007003a00cf8897000180e900c08f9f0046
:1013200010007800a09f9f000804e800100037001c
:101330000000eb00a09f9f008800780005003700a8
:10134000f3ff2700830f5000020032006a02b90049
:101350000400410001047800880078003101fb009e
:101360000203b100e90f5100f5ff3600a09f9f0076
:10137000984478008900fb00409b20003c01070056
:101380000000e000020032000804e800010037001d
:101390008044eb00c97f9f0080c6b30080cf54001b
:1013a00004003a0098cf14000a003a00664050004a
:1013b00006003700c0c6b30080cf540005003a00d5
:1013c00098cf140003003a0065404000c07f9f00a2
:1013d0000804e8001801fb00e3fb2f008f814100a7
:1013e00081f92f008f804000a0f92f000f004000ee
:1013f000100007000000e00009003a00e1fb2f00a8
:101400008f804000a0f92f000f004000530207001a
:101410000000e000020035000804e80061ff37002a
:101420000080eb004f0578004f04be000080fa00fa
:1014300000000600881f7800e4c6b300844f510006
:10144000b600320010003c006b425200844f510045
:101450001800320005003c0054c2b300844f510014
:10146000ee00320084c5b3000f00370044c6b3005d
:10147000844f51001400320065424200844f5100f5
:10148000e9003a001000370004c7b300844f510050
:10149000d50032005300350065424200844f5100b0
:1014a0005000320063424200844f5100de003a0097
:1014b0004c0037001181e90082087800f0009000ac
:1014c00012417800d600370020629000c5c6b300f4
:1014d000854f520007003a00910278006482520062
:1014e000840878001402be004fabde00860378004b
:1014f0001100370015c7b300854f520003003200ba
:10150000a5c6b300854f520006003a00910278004c
:1015100068825200840878005403be004402be0072
:10152000050037001182e900840878001402780071
:10153000cfa2de00612bb9000498be000690be0069
:10154000a060900088c6b30088cf50000d00320024
:1015500028c6b30088cf500004003a000402fb0004
:10156000cfa2de00612bb9000800370048c7b300e6
:1015700088cf5000030032006644440088cf5000fa
:1015800004003a00cfa2de00612bb9000498be002f
:101590000690be003002be002003be00f0009000a6
:1015a000e00f5200e08f5a00e00f5b00e08f5b001d
:1015b00002003d00d4c2b3000800370000129000c2
:1015c0000418a30002003200b4c2b30003003700c5
:1015d0000408a3004c00320004c2b30084f1780078
:1015e0004700370020629000c5c6b300854f520007
:1015f00006003a0091027800648252008408780064
:101600001402be006033b8001100370015c7b300e4
:10161000854f520003003200a5c6b300854f52002b
:1016200006003a009102780068825200840878002f
:101630005403be004402be00050037001182e900d9
:1016400084087800140278008002eb006033b80050
:101650000498be000690be00a060900088c6b3004b
:1016600088cf50000d00320028c6b30088cf50004c
:1016700004003a000482fb008002eb006033b800f3
:101680000800370048c7b30088cf5000030032007d
:101690006644440088cf500004003a008002eb000a
:1016a0006033b8000498be000690be008010900021
:1016b0000138a300140032003002be002003be0037
:1016c000e00f5200e08f5a00e00f5b00e08f5b00fc
:1016d0000d00320081c7b300814f5100030032007a
:1016e00081c5b300814f510007003a00f00090001f
:1016f00004c3b30084f178008100e80082f178002f
:101700008100e80071009800f000900081814100a4
:1017100063009800824078003e003700a06190008e
:10172000c4c6b3001181e90084cf51002200320009
:101730000a003c006442520084cf51002500320070
:1017400004c2e80084cf5100130032006842520006
:1017500084cf51001e003a000a00370044c7b3008e
:1017600084cf51001b0032006642420084cf5100fa
:10177000180032006942520084cf510014003a0030
:1017800005003700820878009200780040589000e9
:10179000804878002c00370082087800920078009a
:1017a000600a9000cfa2de00612bb9008498be00d1
:1017b0008690be00240037008208780092007800ee
:1017c00060099000cf91de008288be001e003700c5
:1017d0001181e9008208780092007800600890008a
:1017e00080087800180037001181e900820878002d
:1017f00012027800cfa2de00612bb9000498be006f
:101800000690be00f00090008181410063009800c6
:1018100081c7b300220007000b003700f0009000e2
:1018200082f1780006003700f000900081814100cd
:101830000204e00001003a0052c2b300824978007d
:101840008100e800710098000000eb004f04780070
:10185000000006008001780002003700b1597800ce
:101860000201e9000200e000fcff3a00000006006f
:10187000020037000304e000060032000001780097
:1018800002007800b041780081cf5100f9ff3a00a2
:10189000010037000001eb000200780000000600a4
:1018a000fc874700889fbe008a9fbe008c9fbe00b9
:1018b0008e1f78000006780080c5b30080cf5000ee
:1018c0000a0032007740400080cf50000a0032000a
:1018d0006940400080cf50000b003200309a200059
:1018e00080bf9f00ae0020000a0037002299200030
:1018f00082bf9f0006003700339a200083bf9f00fd
:101900008e00200003003700349a200084bf9f001f
:101910000e0120003c02be002c03be000605be00e6
:101920000404be0040c6b30080cf50000300320064
:101930006540400080cf50000b003a00e00f52009d
:10194000e08f5a00e00f5b00e08f5b0006003d0077
:101950006000b8006011b80004045000858458008d
:101960000605590087855900e80f5700040032002a
:1019700040002000f00f570038003a000100370007
:1019800030002000e00f5400e08f5c00e00f5d00ad
:10199000e08f5d0004003a00dc0890008d0120001b
:1019a0000100e000060032008e00e900888060003f
:1019b0008fba9700e5c07800f1ef9f007d0120000d
:1019c000800078008100e900050033008b05d1001c
:1019d0000a85d3008984d3000884d300f9ff370037
:1019e000089ebe000a96be00120037008d06e90070
:1019f0008e00e900848060000fb99700e2c1780092
:101a000082fd2f000f01410003f17e00800078006d
:101a10008100e900050033008783d1000683d300ed
:101a20008582d3000482d300f9ff3700049ebe00f4
:101a30000696be003c02be002c03be00e00f520022
:101a4000e08f5a00e00f5b00e08f5b008b003400fa
:101a50000d00e000e5ff3c00880037002c6090009e
:101a600081c6b300814f50000b00320006003c00dd
:101a70000004e00008003200e6c05000814f500032
:101a80004e003a0004003700c1c6b300814f500039
:101a90004a003a00210037000800e00004003a0044
:101aa0005c0890008d0120000000e000060032007c
:101ab000110009000e84d8000fb99700e2c0780029
:101ac000f1ef9f007d012000110009000e84d80075
:101ad0000a003700110009000e04d8008d06e90045
:101ae0000e81b900020454008fb8970061417c0058
:101af00081fd2f008f80400082f07e00000478007e
:101b00000800e000020032000d00e000f1ff3c00a0
:101b1000cfc4de00614db90025003700e00f54004e
:101b2000e08f5c0004003a005c0890008d0120000a
:101b30000000e000070032006171b9000800be003b
:101b4000630107008fb99700e3417800f3ef9f002e
:101b50007d0120006171b9000800be004c01070042
:101b60000b0037006171b9000800be0039010700a1
:101b70008d06e90000f1b900020454000fba970085
:101b8000e4427c0084fd2f000f02420005f27e003b
:101b90000004be00e00f5000e08f58000200320049
:101ba0000d00e000efff3c004fcdde008a0578001d
:101bb000089ebe000a96be0030003700e00f5400b9
:101bc000e08f5c00e00f5d00e08f5d0004003a00f4
:101bd0005c0890008d0120000000e0000900320048
:101be0006172b900612bb9000800be000a01be0095
:101bf0009bfc07000fba970064427800f4ef9f0047
:101c00007d0120006172b900612bb9000800be009f
:101c10000a01be008bfc07000d0037006172b9009d
:101c2000612bb9000800be000a01be0090fc07004d
:101c30008d06e90000f2b900040454008fba970041
:101c400065427c0085fd2f008f82420084f27e0079
:101c5000009ebe000296be003c04be002c05be00e5
:101c6000e00f5400e08f5c00e00f5d00e08f5d004e
:101c7000020034000d00e000e8ff3c00e80f5700d0
:101c800010003a000c1090000038a3000d00320044
:101c9000f78f560006003e0085fd2f008f82420020
:101ca000e5c07e0000c3b30080cf500005003200c5
:101cb0008d06e90002c3b30081fd2f008f80400034
:101cc00082f07e0078811600120e98006c00900061
:101cd00083fd2f008f8141008d804100ddfe0700d4
:101ce0001c089000dc089000810f500006003d00a9
:101cf00000805000000e98000c1090000040a100e1
:101d0000001698000f0037000100e0000d003d00b4
:101d10008c109000f4806000f08f500009003a00b1
:101d20007c099000fc009000810051000c0990009b
:101d300082805000008050004240a9000100340021
:101d4000000e98004f0778004f06be004f05be00fa
:101d50004f04be00cf01b100000006000400fa00ed
:101d6000889fbe008a9fbe008c1f78000004780008
:101d700001067800f80d90007800900080855500ed
:101d8000080890008085550018089000808555004f
:101d900028089000808555003808900080855500ff
:101da00048089000808555000002220090bf9f00e7
:101db00000032300a0bf9f00081090000028a3008c
:101dc00015003a000b00e000130034000b0578000a
:101dd0008a047800e20f5500010036002900200037
:101de000c801900009017800ee805700580090006b
:101df00003000100500498000000e0008c00320055
:101e00006808900009004000600c98000905550022
:101e10004240a900eeff3c00780190000200e00083
:101e20000c003400c80190008c007800580090002d
:101e300003000100500498008080eb000000e000e7
:101e40007c003200e808900078009000008040009c
:101e5000600c9800880c90000900e000110034002c
:101e600009057800e28f5400010036002a002000a6
:101e7000c80190000a017800ec80570058009000db
:101e800003000100500498000000e00068003200e8
:101e9000680890000a004000600c98008a84540092
:101ea000edff3700180990000200e0000c0034003c
:101eb000c8019000e8009000580090000300010065
:101ec000500498008080eb000000e00059003200d0
:101ed000e80890001808900000804000600c98000e
:101ee000a80c90000900e0001100340009057800fa
:101ef000e28f5400010036002a002000c801900043
:101f00000a017800ec80570058009000030001009f
:101f1000500498000000e00045003200680890007e
:101f20000a004000600c98008a845400edff3700de
:101f3000380990000200e0000e003400e800900034
:101f40001808900080804000c80190005800900060
:101f500003000100500498008080eb000000e000c6
:101f600034003200e80890003808900000804000fb
:101f7000600c9800c80c90000900e00011003400cb
:101f800009057800e28f5400010036002a00200085
:101f9000c80190000a017800ec80570058009000ba
:101fa00003000100500498000000e000200032000f
:101fb000680890000a004000600c98008a84540071
:101fc000edff3700081090008000eb000028a30010
:101fd000180032000b00e000160034008b0478007b
:101fe00009057800e28f5400010036002a00200025
:101ff000c80190000a017800ee8057005800900058
:1020000003000100500498000000e00008003200c6
:10201000680890000a004000600c98008a84540010
:102020004240a900eeff3c008000eb0001003700b9
:102030008080eb00010078004f0678004f05be005d
:102040004f04be000080fa0000000600010878007e
:1020500000000600839f68000100e00002003d00d0
:1020600060001000e08018000300e00002003d0066
:1020700060011100e0811900050007004f00e00039
:1020800002003b0060001000e08018000000060025
:102090006022b800060220000000d0008180d2003b
:1020a0000482d2008582d2000000a0000202520009
:1020b00083825a00030031000202420083824a00f8
:1020c0000000a1000603e900f3ff3a00000006004b
:0c20d000efff07000400be000000060047
:020000040000fa
:1020dc00737500006b6100000000000025640000b7
:0420ec0000000000f0
:020000040000fa
:1020f0000000fa001b060700c00e2000a006070023
:10210000e00120009e060700320607000080fa006a
:10211000000006000200fa00004f780011060700d8
:10212000c00e2000960607001e80fb0094060700e4
:10213000280607000b060700d00e200090060700b7
:10214000f5060700d506070056e8b700fa060700af
:10215000f1060700f8060700d006070057e8b700a9
:10216000ed060700030707001a06070056c8bf0060
:102170000080fb00c800dd0057c8bf000080fb00e6
:10218000010070000080fa00000006000800fa005c
:1021900000cab300dfff07006040880020cab30018
:1021a000dcff07000040880040cab300d9ff0700e9
:1021b0001040880060cab300d6ff070020408800a6
:1021c00080cab300d3ff070030408800a0cab30024
:1021d000d0ff070040408800c0cab300cdff070011
:1021e000504088006040800000407800004f780038
:1021f00000408000004078001047980010408000a8
:10220000004078002047980020408000004078007f
:1022100030479800304080000040780040479800e8
:1022200040408000004078005047980050408000b7
:1022300000407800604798000080fa000000060027
:102240000000fa00aaff0700d0ff07000080fa0094
:10225000000006000600fa0040479800c10507008c
:10226000c00e2000460607004e4090000080fb0094
:1022700043060700d705070000202e00410020007c
:1022800093090700b7050700c00e20003c060700b1
:102290000000eb003a060700ce050700b105070075
:1022a000d00e2000360607009b0607007b060700bd
:1022b00058e8b700a0060700970607009e0607002b
:1022c0007606070059e8b7009b060700920607004c
:1022d00099060700710607005ae8b700bd05070018
:1022e0005ac8bf00004f780059c8bf001047980077
:1022f00058c8bf00204798000040eb0030479800c6
:102300001e00be000080fa00000006000800fa006f
:10231000300798000000eb00100798003e00900086
:1023200090007800f0ff2000808060003e00900068
:10233000010878003e0090006e0040008000eb0035
:10234000010878000000eb00000f7800350037002e
:102350009e00780020002000000178001100090094
:102360008200d8008000fd00e10f50000c003a0010
:102370001e0078000080d10000004000be009000e8
:102380000080400090007800f00f20000080600086
:102390009e00900000806800100798000a00370037
:1023a0001e0078000080d10000004000be009000b8
:1023b00000804000100078004800de009e00900081
:1023c000008068001007980080c0b3004047980064
:1023d000100037001e0090000000e00007003d00e4
:1023e0001e009000000040008000780000002300e4
:1023f0000080680010079800030037001e0090005e
:1024000000004000100798004e4090000040e90096
:10241000404798004e4090000004e000edff3a0075
:102420001e0fe8001e007800ef0f5000c8ff3400b8
:102430001e0090004c00de00100798001e00900067
:10244000004078000080fa00000006000000fa005a
:1024500000c4b3007fff07007040880081408800ff
:1024600000c5b3007bff070090408800a1408800b2
:102470000080fa00000006001000fa00889fbe00ed
:102480008a9fbe00404080008000eb0002f02f00d9
:102490000289b900020178008081eb000382b90053
:1024a000840178000301410003f02f000300b8000d
:1024b000010141008200780092408000a34080002a
:1024c0000000410081804900b0408800c140880080
:1024d000b0408000c14080000004be004fcdde004f
:1024e0008a057800504080008000eb006011b80041
:1024f0000203be000002be000800be000a01be00ca
:10250000b9fa0700e00f5000e08f5800e00f5900c3
:10251000e08f590007003d00f4ff2f00f507200071
:102520006033b8000400400085804800060149007f
:10253000878149004708de004912dd000000720073
:10254000c710de00491add00810072004799de00e5
:10255000cf99de000203be000002be00007d200015
:10256000010020006011b8000000420081804a0094
:1025700002014b0083814b0064842000009abe005e
:102580000292be00608420003002be002003be0024
:10259000f07c2000010020006011b8000020e10064
:1025a00001a8e10002b0e10003b8e100f4003c0042
:1025b000b0408000c14080000004be004fcdde006e
:1025c0008a057800b0408000c14080004f89de005d
:1025d000820178000203be000002be000800be00b7
:1025e0000a01be0080fa0700340020000500200028
:1025f0006033b8007cfa07006022b8002600200093
:10260000070020001afa0700e4832000009abe00a9
:102610000292be00608420005001be004000be0057
:10262000d4032000050020006033b8006efa0700d4
:102630000203be000002be0000372200e1ff2f00af
:10264000f2ff2f00f3ff2f000004420081844a00b4
:1026500002054b0083854b00608420003002be00e1
:102660002003be0000832f00f1ff2f00f2ff2f0098
:10267000f3ff2f000000420081804a0002014b005e
:1026800083814b000203be000002be000800be00b2
:102690000a01be0054fa0700e00f5000e08f580016
:1026a000e00f5900e08f590007003d00f4002000c2
:1026b000050020006033b800040040008580480019
:1026c00006014900878149004400de00cc0add0094
:1026d00000807200c408de00cc12dd008180720030
:1026e0004411de00cc1add0002817200c499de00c4
:1026f000e4822000009abe000292be0060842000a6
:102700005001be004000be00d401200005002000a2
:102710006033b80034fa07000203be000002be00b6
:1027200000d72100f1ff2f00f2ff2f00f3ff2f0051
:102730000004420081844a0002054b0083854b005f
:10274000608420003002be002003be0000832f0002
:10275000f1ff2f00f2ff2f00f3ff2f0000004200d7
:1027600081804a0002014b0083814b000203be00be
:102770000002be000800be000a01be001afa0700ef
:10278000e00f5000e08f5800e00f5900e08f590033
:1027900007003d00f4002000050020006033b80071
:1027a00004004000858048000601490087814900f7
:1027b0004400de004c0bdd0000007300c408de00a6
:1027c0004c13dd00810073004411de004c1bdd0062
:1027d00002017300c499de0064832000009abe00e9
:1027e0000292be00608420003002be002003be00c2
:1027f00040a22f00f1ff2f00f2ff2f00f3ff2f0068
:102800000020e10001a8e10002b0e10003b8e1000e
:1028100074003d00608420005001be004000be00f6
:1028200014012000050020006033b800eef9070015
:102830000203be000002be0040c62900f1ff2f00c7
:10284000f2ff2f00f3ff2f000004420081844a00b2
:1028500002054b0083854b00608420003002be00df
:102860002003be0040a22f00f1ff2f00f2ff2f0037
:10287000f3ff2f000000420081804a0002014b005c
:1028800083814b000203be000002be000800be00b0
:102890000a01be00d4f907000203be000002be0018
:1028a000e08220005001be004000be000000420057
:1028b00081804a0002014b0083814b00e4822000aa
:1028c000009abe000292be00608420005001be004b
:1028d0004000be0094002000050020006033b800d6
:1028e000c1f907000203be000002be0040b42c0084
:1028f000f1ff2f00f2ff2f00f3ff2f000004420032
:1029000081844a0002054b0083854b0060842000cf
:102910003002be002003be0040a22f00f1ff2f00b6
:10292000f2ff2f00f3ff2f000000420081804a00d9
:1029300002014b0083814b000203be000002be0077
:102940000800be000a01be00a7f907000203be008e
:102950000002be00608320005001be004000be00a7
:102960000000420081804a0002014b0083814b003d
:1029700064832000009abe000292be001900370056
:10298000b0408000c14080000004be004fcdde009a
:102990008a057800b0408000c14080004f89de0089
:1029a000820178000203be000002be000800be00e3
:1029b0000a01be008cf90700540020000500200029
:1029c0006033b80088f907006022b80006042000d0
:1029d0000700200026f90700e4832000009abe00cb
:1029e0000292be00104080008000eb006011b80031
:1029f0000205be000004be00c155dd00cf4bde0065
:102a00008b857300414ddd00cf43de000a857300e6
:102a1000c144dd000004eb00304080006102b800da
:102a20006033b800049fbe000697be00b04080002f
:102a3000c14080004f89de00820178000203be00a1
:102a40000002be003e00be002e01be0066f9070077
:102a5000e00f5000e08f5800e00f5900e08f590060
:102a600007003d00f4032000050020006033b8009b
:102a70000400400085804800060149008781490024
:102a80004600de00ca0add0000807200c608de00d3
:102a9000ca12dd00818072004611de00ca1add0014
:102aa00002817200c699de000000440081804c0063
:102ab00002014d0083814d00e4812000009abe0098
:102ac0000292be00004080008000eb006011b80060
:102ad0000205be000004be008a05780009057800e2
:102ae000880478000004eb00204080006102b800f8
:102af0006033b800440798005507980066079800af
:102b000077079800b0408000c14080004f89de0008
:102b1000820178000203be000002be004e00900059
:102b2000de0090006e019000fe0190002ef907007b
:102b3000e00f5000e08f5800e00f5900e08f59007f
:102b400007003d00f4072000050020006033b800b6
:102b50000400400085804800060149008781490043
:102b60004700de00c90add0000807200c708de00f1
:102b7000c912dd00818072004711de00c91add0034
:102b800002817200c799de000000440081804c0081
:102b900002014d0083814d0064822000009abe0036
:102ba0000292be00608420003002be002003be00fe
:102bb000e08320005001be004000be000000520033
:102bc00081805a0002015b0083815b0064842000e5
:102bd000009abe000292be00e08120003002be00da
:102be0002003be00e08220005001be004000be0075
:102bf0000000520081805a0002015b0083815b006b
:102c0000e4812000009abe000292be006082200093
:102c10003002be002003be00608320005001be00d1
:102c20004000be000000520081805a0002015b009b
:102c300083815b0064822000009abe000292be0085
:102c4000608420005001be004000be0019f707005c
:102c500002002000832c2400b9f60700e04288001f
:102c6000f14288004f05be004f04be000080fa000c
:102c7000000006000000fa00889fbe008a9fbe0088
:102c8000608220005001be004000be000001be0076
:102c90007040800081408000009ab90004027800f2
:102ca000028bb90086027800050242000010b800cd
:102cb0000102420084007800e00f5000e08f5800cd
:102cc00004003d00f2ff2f00f3012000000041004e
:102cd000818049004588de00cf80de000002be0012
:102ce000e08120005001be004000be000000be0098
:102cf0000000520081805a00e00f5000e08f580021
:102d000004003d00f2ff2700030020000000410006
:102d1000818049004109dd004f00de0000007100a4
:102d2000cf88de00d0408800e140880070408000fd
:102d3000814080000004be006055b8006082200021
:102d40005001be004000be000203be000002be00f3
:102d50000800be000a01be00a3f80700e00f500003
:102d6000e08f5800e00f5900e08f590007003d0048
:102d7000f4ff2f00f50120006033b800040040008c
:102d80008580480006014900878149004508de002a
:102d90004b12dd0000007200c510de004b1add0092
:102da000810072004599de00cf99de000203be006b
:102db0000002be00e08120005001be004000be00c5
:102dc0000000520081805a0002015b0083815b0099
:102dd000e00f5000e08f5800e00f5900e08f5900dd
:102de00007003d00f4ff2700050020006033b80015
:102df00004004000858048000601490087814900a1
:102e00004f00de00410add0000007200cf08de0046
:102e10004112dd00810072004f11de00411add0019
:102e200002017200cf99de00e4842000009abe0007
:102e30000292be00e08420005001be004000be00af
:102e40009cf6070002002000832c24003cf60700bb
:102e500000438800114388004f05be004f04be00a8
:102e60000080fa00000006000000fa0077fd07006d
:102e700081fd07007fff07000080fa0000000600c8
:102e80000000fa008d81a8008a41a9008bc1a90029
:102e90008b81a9000223ef000423ef000823ef0039
:102ea00010002000801888001423ef001623ef0084
:102eb0001823ef001a23ef001012280000188800d2
:102ec0000080fa00000006000400fa002047980085
:102ed0008d81a900000000004018800062006000a1
:102ee0000000e000fcff3a002e4090000080fb0054
:102ef00060188800000000004118800000022000d7
:102f0000008060000000e000fbff3a0060188000d5
:102f1000004f78008d81a8001e4078000080fa00e4
:102f2000000006000400fa0020479800000000009e
:102f300040188000620060000000e000fcff3a00e2
:102f40002e4090000080fb00601888000000000008
:102f50004118800000022000008060000000e000b6
:102f6000fbff3a0060188000004f78001e40780098
:102f70000080fa00000006000000fa008da1a90000
:102f8000600c80004d00de00614060000080fb00ae
:102f9000610060004e00dd00620c8000f1ff2b003c
:102fa0008100610001007000600c88008d81a80024
:102fb000b3ff07000080fa00000006000800fa00d6
:102fc000000f780012079800230798003107980037
:102fd0008d81a90030c0b300d2ff07001e01900010
:102fe000ae01900000002000f10f200002027800e6
:102ff000030178008001780001007800030262007c
:10300000000061008000eb00c000dd000000200037
:103010000001be006120b8000001710081817100d3
:103020004098de00cf80de0000407800bdff070042
:103030001e019000ae01900000f02f000100200062
:103040000202780003017800800178000100780016
:1030500003026200000061008000eb00c000dd00a0
:10306000000020000001be006120b80000017100d6
:1030700081817100481add004810de0000007200f6
:10308000c898de0000407800a6ff07001e009000f0
:1030900000407800a3ff0700050037000040eb0068
:1030a000a0ff07009e007800804878001e0fe8000f
:1030b00010c0b300be0090000100e00001003c0021
:1030c0000040eb00be0090008100e900310798004d
:1030d0000004e000f1ff3a008d81a8000080fa00b2
:1030e000000006000800fa00000f780012079800a0
:1030f00023079800310798008d81a900b0c0b30064
:1031000088ff07001e019000ae0190000000200023
:10311000f10f20000202780003017800800178009e
:103120000100780003026200000061008000eb00f3
:10313000c000dd00000020000001be006120b800da
:1031400000017100818171004098de00cf80de00b7
:103150000040780073ff07001e019000ae01900050
:1031600000f02f0001002000020278000301780027
:103170008001780001007800030262000000610015
:103180008000eb00c000dd00000020000001be0058
:103190006120b8000001710081817100481add00d2
:1031a0004810de0000007200c898de000040780081
:1031b0005cff07001e0090000040780059ff0700e8
:1031c0000040eb0057ff0700050037000040eb0010
:1031d00054ff07009e007800804878001e0fe8002a
:1031e00010c0b300be0090000100e00001003c00f0
:1031f0000040eb00be0090008100e900310798001c
:103200000004e000f1ff3a008d81a8000080fa0080
:10321000000006000200fa008d81a90050c0b30032
:1032200040ff07000040eb003eff0700004f780022
:103230008d81a8001e4078000080fa000000060082
:103240000200fa00000f78008d81a90000c9b300c8
:1032500034ff07000040eb0032ff07000040eb00a6
:1032600030ff07000040eb002eff07000040eb009e
:103270002cff07009e007800804878001e0fe800b1
:103280000040eb0027ff07009e0078008048780090
:103290008d81a8000080fa00000006000000fa00fe
:1032a00060c0b30008ff07000080fa0000000600bd
:1032b0000000fa0040c0b30003ff07000080fa00de
:1032c000000006000000fa0000c5b300fefe070083
:1032d0000080fa00000006000600fa00004f7800a7
:1032e0001207980023079800ecff07008d81a900c2
:1032f00020c0b3000bff07001e019000ae0190003c
:1033000000002000f10f2000020278000301780085
:103310008001780001007800030262000000610073
:103320008000eb00c000dd00000020000001be00b6
:103330006120b80000017100818171004098de00b9
:10334000cf80de0000407800f6fe07001e019000ee
:10335000ae01900000f02f00010020000202780072
:103360000301780080017800010078000302620008
:10337000000061008000eb00c000dd0000002000c4
:103380000001be006120b800000171008181710060
:10339000481add004810de0000007200c898de0008
:1033a00000407800dffe07001e009000004078001b
:1033b000dcfe07001e407800dafe07008d81a800c1
:1033c000bbff07000080fa00000006000200fa00c0
:1033d00090ff0700004f780030ceb3001e4f600012
:1033e000aeff07008d81a90010c0b300cdfe07001d
:1033f0001e407800cbfe07008d81a800acff0700bf
:103400000080fa00000006000000fa00a3ff070099
:1034100000c6b300acfe0700000000007dff0700ff
:103420000080fb0061006000004078000004e000c4
:10343000faff3a009eff07000080fa000000060035
:103440000400fa00008fbe0094ff07008d81a900e0
:1034500000c2b300b3fe070000002000f10f2000ff
:103460001e01be000202780003017800800178008e
:103470000100780003026200000061008000eb00a0
:10348000c000dd00000020000001be006120b80087
:1034900000017100818171004098de00cf80de0064
:1034a000004078009ffe070000f02f000100200080
:1034b0001e01be000202780003017800800178003e
:1034c0000100780003026200000061008000eb0050
:1034d000c000dd00000020000001be006120b80037
:1034e0000001710081817100481add004810de0082
:1034f00000007200c898de000040780089fe0700d6
:103500000040eb0087fe07008d81a800000000004e
:1035100040ff07000080fb00610060000040780071
:103520000004e000faff3a0061ff07000080fa00a3
:10353000000006000400fa00008fbe0057ff0700dd
:103540008d81a90020c5b30076fe07000000200091
:10355000f10f20001e01be00020278000301780076
:103560008001780001007800030262000000610021
:103570008000eb00c000dd00000020000001be0064
:103580006120b80000017100818171004098de0067
:10359000cf80de000040780062fe07000040eb00b4
:1035a00060fe07000040eb005efe07008d81a80072
:1035b0000000000017ff07000080fb0061006000b2
:1035c000004078000004e000faff3a0038ff0700ee
:1035d0000080fa00000006000400fa00008fbe0020
:1035e0002eff07008d81a90080cdb3004dfe07009e
:1035f00000002000f10f20001e01be000202780032
:103600000301780080017800010078000302620065
:10361000000061008000eb00c000dd000000200021
:103620000001be006120b8000001710081817100bd
:103630004098de00cf80de000040780039fe0700b1
:103640000040eb0037fe07000040eb0035fe0700ae
:103650008d81a80000000000eefe07000080fb0046
:1036600061006000004078000004e000faff3a00ca
:103670000fff07000080fa00000006000200fa00b9
:10368000004f78000fff07008d81a90010c0b30024
:1036900024fe07001e40780022fe07008d81a8004e
:1036a0000080fa00000006000200fa00000f780017
:1036b0008d81a900f0c9b3001afe07000040eb009d
:1036c00018fe07009e007800804878001e0fe80072
:1036d0000040eb0013fe07009e0078008048780051
:1036e0001e0fe8000040eb000efe07009e00780071
:1036f000804878008d81a8000080fa000000060054
:103700000800fa00000f78001207980023079800bd
:1037100031079800e1fe07008d81a900d0cab300ef
:1037200000fe07001e019000ae0190000000200086
:10373000f10f200002027800030178008001780078
:103740000100780003026200000061008000eb00cd
:10375000c000dd00000020000001be006120b800b4
:1037600000017100818171004098de00cf80de0091
:1037700000407800ebfd07001e019000ae019000b4
:1037800000f02f0001002000020278000301780001
:1037900080017800010078000302620000006100ef
:1037a0008000eb00c000dd00000020000001be0032
:1037b0006120b8000001710081817100481add00ac
:1037c0004810de0000007200c898de00004078005b
:1037d000d4fd07001e00900000407800d1fd0700d6
:1037e0001e00780010407800cefd07001e0fe80094
:1037f0001e00780010407800cafd07001e0fe80088
:103800003e0090000080e900300798008d81a800fc
:103810003e0090000000e000410034003e009000b7
:10382000610060000000e0003a003a001600370036
:103830008d81a900d0cab300bafd07001e00780030
:1038400010407800b7fd07001e0fe8001e0078004a
:1038500010407800b3fd07001e0fe8003e00900006
:103860000080e900300798008d81a800000000006a
:1038700068fe07000080fb006100600000407800e7
:103880000004e000faff3a003e0090000000e00073
:10389000e7ff3c00220037008d81a900d0cab300a9
:1038a000a0fd07001e007800104078009dfd070075
:1038b0001e0fe8003e0090000000e900300798006d
:1038c0003e0090000000e00003003a000040eb00e2
:1038d00094fd0700120037001e00780010407800a9
:1038e00090fd07001e0fe8003e0090000000e90078
:1038f000300798008d81a8000000000045fe0700f9
:103900000080fb0061006000004078000004e000df
:10391000faff3a003e0090000000e000deff3c00ad
:103920008d81a80062fe07000080fa0000000600fa
:103930000000fa00e0042000f016880000202800b3
:1039400000178800e422ef008620a9000080fa001a
:10395000000006000000fa00f5ff07000080fa00f2
:10396000000006000200fa000000eb00000f7800e3
:10397000e0a2a900000a200001002000d4030700f3
:10398000e002a8000000000007003700000120004e
:1039900001002000ce0307001e0fe8001e00780083
:1039a000f40f500005003c0000178000610060002b
:1039b0000000e000f5ff3a000100370000000000c1
:1039c0000002200001002000c10307000080fa006f
:1039d000000006000200fa000000eb00000f780073
:1039e000e0a2a900000a200001002000b80307009f
:1039f000e042a8000000000007003700000120009e
:103a000001002000b20307001e0fe8001e0078002e
:103a1000f40f500005003c000017800064006000b7
:103a20000000e000f5ff3a00010037000000000050
:103a30000002200001002000a50307000080fa001a
:103a4000000006000200fa000000eb00000f780002
:103a5000e0a2a900000a2000010020009c0307004a
:103a6000e022a8000000000007003700000120004d
:103a700001002000960307001e0fe8001e007800da
:103a8000f40f500005003c00001780006200600049
:103a90000000e000f5ff3a000100370000000000e0
:103aa0000002200001002000890307000080fa00c6
:103ab000000006000200fa000000eb00000f780092
:103ac000e022a800000000000700370000012000ed
:103ad000010020007e0307001e0fe8001e00780092
:103ae000f40f500005003c000017800062006000e9
:103af0000000e000f5ff3a00010037000000000080
:103b00000002200001002000710307000080fa007d
:103b1000000006000200fa000000eb00000f780031
:103b2000e042a8000700370000022000010020004a
:103b3000670307001e0fe8001e007800f40f500016
:103b400005003c0000178000640060000000e000f9
:103b5000f5ff3a000100370000000000e062a90014
:103b60008620a900e4e2a900e542a900000a20009d
:103b700001002000560307000080fa000000060044
:103b80000400fa00100798000000000020178000d1
:103b9000610060000000e000fcff3a008620a90000
:103ba0001e009000e01688000000eb00000f780077
:103bb0000900370021178000000024000080600009
:103bc0000000e00009003200000120000100200098
:103bd0003f0307001e0fe800301f20009e00780002
:103be000808f5000f3ff3400010037000000000018
:103bf000401f20009e007800808f500002003a0095
:103c000010c0b3000c00370021178000000028000e
:103c1000008060000000e00003003200bdff0700ec
:103c200010c0b30004003700000220000100200093
:103c3000270307000040eb000080fa0000000600a8
:103c40000400fa000000eb00000f78000040eb00d9
:103c500020479800e062a800050037001e0fe8002a
:103c6000007d20009e007800808f500005003c0001
:103c700020178000620060000000e000f7ff3200c3
:103c80000100370000000000d01680002047980097
:103c90002e4090000080fa00000006000400fa00a8
:103ca0000000eb00000f78000040eb002047980078
:103cb000e062a800050037001e0fe800007d20002c
:103cc0009e007800808f500005003c002017800087
:103cd000620060000000e000f7ff320001003700e2
:103ce000000000000000eb00000f7800d0168000fc
:103cf000204798000002200001002000f402070085
:103d00000002200001002000f10207002e40900078
:103d10000080fa00000006000000fa000000000029
:103d2000001780007f0060000000e000fcff3a0008
:103d30000080fa00000006000000fa00e0a2a900de
:103d400000000000e062a900e042a900e022a90012
:103d5000e002a900e082a800000000000017800037
:103d6000700060000000e000fcff3a000080fa00f4
:103d7000000006000000fa00e0a2a8000000000019
:103d8000e062a900e042a900e022a900e002a90047
:103d9000e082a800000000000017800070006000b2
:103da0000000e000fcff3a000080fa00000006007e
:103db0000000fa001008200071ff0700300e2000fc
:103dc0006fff07000080fa00000006000200fa0002
:103dd000004f7800e3fe07000008200068ff07009e
:103de0001e80fb0066ff0700defe070010082000b3
:103df00063ff0700c8ff0700a8ff070064e8b700db
:103e0000cdff0700c4ff0700cbff0700a3ff07009b
:103e100065e8b700c0ff0700d6ff0700edfe07000a
:103e200064c8bf000080fb00c800dd0065c8bf009b
:103e30000080fb00010070000080fa000000060016
:103e40000000fa00c7fe0700100820004cff070022
:103e5000b1ff070091ff070069e8b700b6ff070050
:103e6000adff0700b4ff07008cff070068e8b7004c
:103e7000b1ff0700a8ff0700afff070087ff07009b
:103e80006be8b700acff0700a3ff0700aaff07001d
:103e900082ff07006ae8b7009fff0700b5ff070031
:103ea000ccfe07000080fa00000006000400fa00c3
:103eb000004f78001147980022479800a9fe07009c
:103ec000000820002eff07001e80fb002cff0700cb
:103ed0001e4090000080fb0029ff07002e4090004c
:103ee0000080fb0026ff0700bafe07000080fa00f2
:103ef000000006000200fa00004f780099fe07005b
:103f0000000820001eff07001e80fb001cff0700aa
:103f10000080fa00000006000200fa00004f78005e
:103f200090fe07000008200015ff07001e80fb0020
:103f300013ff07000080fa00000006000000fa00ee
:103f4000404380008000eb00e00f5000e08f5800fd
:103f500004003d00f2ff2f0003002000000041009c
:103f6000818049004088de00cf80de00520a2000b8
:103f70000289b900020178006002b900840178006a
:103f800003014100530a20000300b8000101410071
:103f9000820078008002b1000180b10055f2070074
:103fa0006043880071438800404380008000eb003c
:103fb00082f207000200200003782400e0f10700ed
:103fc0000200200053322400d1f20700020020003a
:103fd000032224007cf10700a0438800b14388003d
:103fe0000080fa00000006000000fa005043800044
:103ff0008000eb00e00f5000e08f580004003d000f
:10400000f2ff2f00030020000000410081804900e2
:104010004088de00cf80de00420620000289b90021
:10402000020178006002b9008401780003014100b8
:10403000430620000300b80001014100820078001f
:104040002cf2070080438800914388005043800091
:104050008000eb0059f207000200200003782400e2
:10406000b7f1070002002000832c2400a8f207000b
:10407000c0438800d14388000080fa000000060099
:104080000000fa0037fe070000082000bcfe070011
:104090000000eb00bafe070010082000b8fe070081
:1040a0001dff0700fdfe07007ce8b70022ff0700a8
:1040b00019ff070020ff0700f8fe07007de8b700a2
:1040c0001dff070014ff07001bff0700f3fe07009a
:1040d0007ee8b70018ff07000fff070016ff070074
:1040e000eefe07007fe8b7003afe07007cc8bf007d
:1040f0000080fb00c800dd007dc8bf000080fb0021
:1041000001007000cf80de00faf1070080438800d4
:10411000914388007ec8bf000080fb00c800dd001e
:104120007fc8bf000080fb0001007000cf80de0070
:10413000f0f1070060438800714388000080fa00b6
:10414000000006000000fa0006fe0700100820002c
:104150008bfe0700f0fe0700d0fe070064e8b70002
:10416000f5fe0700ecfe0700f3fe0700cbfe07009c
:1041700065e8b700f0fe0700e7fe0700eefe070067
:10418000c6fe070065e8b700ebfe0700e2fe070089
:10419000e9fe0700c1fe070064e8b700defe070085
:1041a000f4fe07000bfe07000080fa000000060086
:1041b0000000fa000080fa00000006000000fa008b
:1041c0000080fa00000006000000fa000041eb0049
:1041d00041c1b30020c0b30034ff07000040eb0032
:1041e0004dff070000582b0011002000b801070008
:1041f00013ff070051ff07007bff07000080fa0054
:10420000000006000400fa00100798001e0090004d
:104210008000eb00e9f1070022852b00f332240037
:104220003bf20700020020000378240044f107005d
:1042300062662600b3232400e3f0070082f1070042
:10424000000f78009e007800614488001e0078000e
:104250000080fa00000006000600fa00200798001f
:104260002e0090008000eb00008fbe009e009000aa
:10427000d00720000088b900000178001e007800f7
:104280006000b90000007800000141009e00780045
:10429000d00720000008b80001014100820078002a
:1042a0004008de0001002000a2ff2f00f3ff2f00d6
:1042b000021f4000039748001e0078000080fa00ab
:1042c000000006000000fa00a6fd0700000820001c
:1042d0002bfe0700000e200029fe0700d9fd070075
:1042e0001008200026fe07008bfe07006bfe07006b
:1042f00080e8b70090fe070087fe07008efe0700eb
:1043000066fe070081e8b70083fe070099fe0700fc
:10431000b0fd070080c8bf0084e8b70081c8bf00b7
:1043200085e8b7000080fa00000006000000fa00ef
:104330008cfd07000008200011fe0700300e200051
:104340000ffe0700bffd0700100820000cfe07004d
:1043500071fe070051fe070080e8b70076fe0700f7
:104360006dfe070074fe07004cfe070081e8b700f1
:1043700069fe07007ffe070096fd070080c8bf00aa
:1043800084e8b70081c8bf0085e8b7000080fa0064
:10439000000006000000fa0072fd0700000820007f
:1043a000f7fd0700500e2000f5fd0700a5fd0700f2
:1043b00010082000f2fd070057fe070037fe070037
:1043c00082e8b7005cfe070053fe07005afe0700b4
:1043d00032fe070083e8b7004ffe070065fe0700c6
:1043e0007cfd070082c8bf0086e8b70083c8bf0015
:1043f00087e8b7000080fa00000006001600fa0007
:10440000c4fd0700e3ff07003044800092ff07006f
:1044100050448800abff07002044800079ff07006c
:10442000404488000000eb00000f78009e007800f8
:10443000648f4000414480000e80e800811f7800b6
:1044400041072900811f780039f30700e4875700ee
:10445000514480006c004700811f7800410729000b
:10446000811f780032f30700e48757000080fa00cc
:10447000000006000200fa003afd070000082000d4
:10448000bffd070040082000bdfd0700800b200095
:10449000bbfd070033fd070010082000b8fd070032
:1044a000e7fd0700004f78000080fa0000000600da
:1044b0000000fa008421ef008e21ef00e0002000d0
:1044c000000c8800b07c2000500c88005620ef00c3
:1044d0005820ef005a20ef006e20ef007020ef0010
:1044e0007220ef008621ef009021ef00c000200035
:1044f000400c880040202700900c880001088000b4
:10450000f00b200000816000600420007105200095
:1045100003102000804978008149780082497800a2
:10452000811d8000f00f2c00808060000030200092
:1045300001007000801d8800111f800000fc2f000a
:10454000008060003000b300101f8800811d8000d3
:1045500000fc2f0000806000a000b300801d8800d8
:10456000211f800000fc2f00008060007000b3005d
:10457000201f8800a11d800000fc2f00008060002b
:10458000d000b300a01d8800c11e800000fc2f00d9
:10459000008060000030a000c01e8800010880007c
:1045a000000420000101700060042000710520005b
:1045b0000310200080497800814978008249780002
:1045c0000080fa00000006000000fa000001eb0085
:1045d000600420007105200003102000804978004d
:1045e0008149780082497800000223001008880081
:1045f0000621ef006821ef006c21ef000821ef0099
:104600000080fa00000006000000fa00ffff3700fb
:104610000000fa00ffff37000000fa00ffff37003c
:104620000000fa00ffff37000000fa00ffff37002c
:104630000000fa008400a9000080fa000040060093
:104640000000fa008400a9008200a9009400a800dc
:104650000080fa00000006000000fa008401a800b3
:1046600000a0260081012000990007008401a90014
:104670000080fa00000006000000fa00d2ff0700e8
:104680008bff0700aafc07000c000700ecff0700e7
:104690008fe1a80000802400811e20008c0007000c
:1046a000edff070000902000d103200088000700e4
:1046b000e006290039000700faff37000000fa0081
:1046c000f00c200040288800000028000028880006
:1046d00000402800102888009560a8004005800050
:1046e00000c0a00000d0a10000e0a00040058800ac
:1046f000200680000040a1000050a0000060a00043
:1047000020068800102880000060a1000070a10031
:10471000102888000225a9008560a9000345a8008b
:104720000080fa0000000600809fbe00829fbe004d
:104730000000fa0090c8bf008080fb003228800093
:10474000824178002289200003f178000040e800cf
:1047500090e8b7008560a9000225a9000080fa0052
:104760004f01be004f00be00004006000200fa00ec
:10477000004f780000000000112880000020200079
:10478000008060000000e000fbff3a001e00fb001c
:10479000202888000080fa00000006000400fa00cb
:1047a000100798000040eb00004f7800060037002b
:1047b0001e00900010407800ecff07001e009000e3
:1047c0000000e800100798001e009000104f7800cd
:1047d0001e4078000004e000f5ff3a000080fa0077
:1047e000000006000200fa00000000002104800022
:1047f00000802000008060000000e000fbff32002d
:1048000030288000004f78008560a9001e407800a5
:084810000080fa000000060020
:020000040000fa
:104818008e080000020000008000000080080000f0
:104828000e00000080000000640800001c0000006a
:104838008000000000080000640000008000000004
:1048480092080000000100008000000090080000ad
:104858000200000080000000b40900001a000000f7
:1048680082000000686a6c00747a4c000000010045
:1048780000020000040008000010000000002000f2
:104888002b2d2300300000009209000022000000b8
:1048980082000000303132003334350036373800ba
:1048a800394142004344450046003000313233006c
:1048b8003435360037383900616263006465660054
:0848c8000000000084248000c0
:020000040000fa
:1048d000f03fb1000180b10006003500ee03090091
:1048e00000000000403fb1000180b100fbff3d002f
:1048f0001000b000203fb000020035000080090029
:084900000000000000000600a9
:020000040000fa
:0449080000000000ab
:020000040000fa
:020000040002f8
:04aff0003fb200006c
:020000040000fa
:020000040002f8
:04aff400fff7000063
:020000040000fa
:020000040002f8
:04aff800bfb10000e5
:020000040000fa
:020000040002f8
:04affc003f7f000093
:00000001FF
